{
  "contractName": "Treasury",
  "abi": [
    {
      "inputs": [],
      "name": "totalFund",
      "outputs": [
        {
          "internalType": "uint256",
          "name": "",
          "type": "uint256"
        }
      ],
      "stateMutability": "view",
      "type": "function",
      "constant": true
    },
    {
      "inputs": [
        {
          "internalType": "address",
          "name": "",
          "type": "address"
        }
      ],
      "name": "treasure",
      "outputs": [
        {
          "internalType": "uint256",
          "name": "",
          "type": "uint256"
        }
      ],
      "stateMutability": "view",
      "type": "function",
      "constant": true
    },
    {
      "inputs": [],
      "name": "depositFunds",
      "outputs": [],
      "stateMutability": "payable",
      "type": "function",
      "payable": true
    },
    {
      "inputs": [
        {
          "internalType": "uint256",
          "name": "amount",
          "type": "uint256"
        }
      ],
      "name": "withdrawFunds",
      "outputs": [],
      "stateMutability": "payable",
      "type": "function",
      "payable": true
    },
    {
      "inputs": [
        {
          "internalType": "address",
          "name": "receiver",
          "type": "address"
        },
        {
          "internalType": "uint256",
          "name": "amount",
          "type": "uint256"
        }
      ],
      "name": "transferFunds",
      "outputs": [],
      "stateMutability": "payable",
      "type": "function",
      "payable": true
    }
  ],
  "bytecode": "0x6080604052600060015534801561001557600080fd5b50610718806100256000396000f3fe60806040526004361061004a5760003560e01c8063100aca471461004f578063155dd5ee1461007a5780633bd296d314610096578063990dc9db146100d3578063e2c41dbc146100ef575b600080fd5b34801561005b57600080fd5b506100646100f9565b6040516100719190610468565b60405180910390f35b610094600480360381019061008f91906104b4565b6100ff565b005b3480156100a257600080fd5b506100bd60048036038101906100b8919061053f565b610238565b6040516100ca9190610468565b60405180910390f35b6100ed60048036038101906100e8919061056c565b610250565b005b6100f76103df565b005b60015481565b806000803373ffffffffffffffffffffffffffffffffffffffff1673ffffffffffffffffffffffffffffffffffffffff168152602001908152602001600020541015610180576040517f08c379a000000000000000000000000000000000000000000000000000000000815260040161017790610609565b60405180910390fd5b806000803373ffffffffffffffffffffffffffffffffffffffff1673ffffffffffffffffffffffffffffffffffffffff16815260200190815260200160002060008282546101ce9190610658565b9250508190555080600160008282546101e79190610658565b925050819055503373ffffffffffffffffffffffffffffffffffffffff166108fc829081150290604051600060405180830381858888f19350505050158015610234573d6000803e3d6000fd5b5050565b60006020528060005260406000206000915090505481565b806000803373ffffffffffffffffffffffffffffffffffffffff1673ffffffffffffffffffffffffffffffffffffffff1681526020019081526020016000205410156102d1576040517f08c379a00000000000000000000000000000000000000000000000000000000081526004016102c890610609565b60405180910390fd5b806000803373ffffffffffffffffffffffffffffffffffffffff1673ffffffffffffffffffffffffffffffffffffffff168152602001908152602001600020600082825461031f9190610658565b9250508190555080600160008282546103389190610658565b92505081905550806000808473ffffffffffffffffffffffffffffffffffffffff1673ffffffffffffffffffffffffffffffffffffffff168152602001908152602001600020600082825461038d919061068c565b925050819055508173ffffffffffffffffffffffffffffffffffffffff166108fc829081150290604051600060405180830381858888f193505050501580156103da573d6000803e3d6000fd5b505050565b346000803373ffffffffffffffffffffffffffffffffffffffff1673ffffffffffffffffffffffffffffffffffffffff168152602001908152602001600020600082825461042d919061068c565b925050819055503460016000828254610446919061068c565b92505081905550565b6000819050919050565b6104628161044f565b82525050565b600060208201905061047d6000830184610459565b92915050565b600080fd5b6104918161044f565b811461049c57600080fd5b50565b6000813590506104ae81610488565b92915050565b6000602082840312156104ca576104c9610483565b5b60006104d88482850161049f565b91505092915050565b600073ffffffffffffffffffffffffffffffffffffffff82169050919050565b600061050c826104e1565b9050919050565b61051c81610501565b811461052757600080fd5b50565b60008135905061053981610513565b92915050565b60006020828403121561055557610554610483565b5b60006105638482850161052a565b91505092915050565b6000806040838503121561058357610582610483565b5b60006105918582860161052a565b92505060206105a28582860161049f565b9150509250929050565b600082825260208201905092915050565b7f496e73756666696369656e742046756e64730000000000000000000000000000600082015250565b60006105f36012836105ac565b91506105fe826105bd565b602082019050919050565b60006020820190508181036000830152610622816105e6565b9050919050565b7f4e487b7100000000000000000000000000000000000000000000000000000000600052601160045260246000fd5b60006106638261044f565b915061066e8361044f565b92508282101561068157610680610629565b5b828203905092915050565b60006106978261044f565b91506106a28361044f565b9250827fffffffffffffffffffffffffffffffffffffffffffffffffffffffffffffffff038211156106d7576106d6610629565b5b82820190509291505056fea2646970667358221220a942cfd3b75b13bca9032be7ac640f17a979b6535c476f69aa256e88cbfb825e64736f6c634300080d0033",
  "immutableReferences": {},
  "source": "// SPDX-License-Identifier: MIT\npragma solidity 0.8.13;\n\ncontract Treasury {\n  mapping(address => uint256) public treasure;\n  uint256 public totalFund = 0;\n\n  function depositFunds() public payable {\n    treasure[msg.sender] += msg.value;\n    totalFund += msg.value;\n  }\n\n  function withdrawFunds(uint amount) public payable {\n    require(treasure[msg.sender] >= amount, \"Insufficient Funds\");\n    treasure[msg.sender] -= amount;\n    totalFund -= amount;\n\n    // Transfer back fund\n    payable(msg.sender).transfer(amount);\n  }\n\n  function transferFunds(address receiver, uint amount) public payable {\n    require(treasure[msg.sender] >= amount, \"Insufficient Funds\");\n    treasure[msg.sender] -= amount;\n    totalFund -= amount;\n\n    // Transfer the fund to the receiver\n    treasure[receiver] += amount;\n    payable(receiver).transfer(amount);\n  }\n\n}\n",
  "sourcePath": "/Users/srajangupta/work/srajandev98/blockchain-vidhya/projects/dao-treasury/contracts/Treasury.sol",
  "compiler": {
    "name": "solc",
    "version": "0.8.13+commit.abaa5c0e.Emscripten.clang"
  },
  "schemaVersion": "3.4.7",
  "updatedAt": "2022-05-03T12:16:23.689Z",
  "networkType": "ethereum",
  "devdoc": {
    "kind": "dev",
    "methods": {},
    "version": 1
  },
  "userdoc": {
    "kind": "user",
    "methods": {},
    "version": 1
  }
}